:020000040800F2
:10000000F80900203D0100086F0100087101000897
:100010007301000875010008770100080000000066
:10002000000000000000000000000000790100084E
:100030007B010008000000007D010008C1350008B8
:100040008101000881010008810100088101000888
:100050008101000881010008810100088101000878
:100060008101000881010008810100088101000868
:1000700081010008913D000881010008810100080C
:10008000810100088101000881010008F53900089C
:1000900081010008113A0008753D0008810100083F
:1000A000810100088101000881010008D94200088F
:1000B0008101000800F002F800F030F80CA030C810
:1000C000083824182D18A246671EAB4654465D46D4
:1000D000AC4201D100F022F87E460F3E0FCCB6466E
:1000E0000126334200D0FB1AA246AB4633431847E1
:1000F000208A0000408A00000023002400250026FA
:10010000103A01D378C1FBD8520700D330C100D5D3
:100110000B6070471FB51FBD10B510BD01F088FA08
:100120001146FFF7F7FF05F0F9F801F0A0FA03B464
:10013000FFF7F2FF03BC01F0D1FA0000144880F38E
:10014000088814480168090E134A9142FFD11348E8
:1001500013490160134814490160144812490160B1
:100160000E48134901601348804713480047FEE7D3
:10017000FEE7FEE7FEE7FEE7FEE7FEE7FEE7FEE757
:10018000FEE700000D480E490E4A0F4B7047000075
:10019000F8090020040000001F0000001C100240AD
:1001A0000000000418680040120000001C680040B5
:1001B00000000000F9350008B5000008F803002031
:1001C000F8090020F8050020F8050020FEB50546D6
:1001D00010460C46184373D0AE468C460020AD1A2C
:1001E00001469C4167D36646002701243D46B61A66
:1001F0009D4102D313463A462124654676462F0494
:10020000360C3E432D0CB61A9D4104D3150C1B042D
:100210002B4312041034654676462F06360A3E43B9
:100220002D0AB61A9D4104D3150E1B022B43120250
:100230000834654676462F0736093E432D09B61A1F
:100240009D4104D3150F1B012B431201241D65464C
:100250007646AF07B6083E43AD08B61A9D4104D3B3
:10026000950F9B002B439200A41C65467646EF0732
:1002700076083E436D08B61A9D411AD392185B4129
:10028000641C16E00018764665464941B71A9D4140
:100290000191009009D36046B11A98418E46844678
:1002A000009801990025401C6941DD0752082A4346
:1002B0005B08641EE6D57246634603B0F0BDFFE7F7
:1002C00000200146C046C0462A462346F5E7000006
:1002D00030B5441C03E00178401C00290DD0810793
:1002E000F9D10B4BDD0104C8D11A91432940FAD052
:1002F000001B0A0603D0C01E30BD001B30BD0A041F
:1003000001D0801E30BD0902FCD0401E30BD00006F
:10031000010101010346F0B50B439B072DD1244D8C
:10032000EF01042A29D308C810C95E1B9E43121F7F
:100330003E4017D0D8B2E1B2401A3106014310D185
:1003400098B2A1B2401A310401430AD11802210225
:10035000000A090A401A3102014302D1180E210E87
:10036000401AF0BDA342DCD018BA21BA884201D9A4
:100370000120F0BD0020C043F0BD002A01D10020C3
:10038000F0BD03780C78401C491C002B0DD0A34213
:100390000BD1521E09D003780C78401C491C002B4D
:1003A00003D0A34201D1521EEBD1181BF0BD0000B7
:1003B0000101010101E004C0091F0429FBD28B07E0
:1003C00001D50280801CC90700D002707047002947
:1003D0000BD0C30702D00270401C491E022904D36F
:1003E000830702D50280801C891EE3E70022EEE726
:1003F0000022DFE7024670B50A4392072AD11E4D5C
:10040000EE0104C808C9541B9443344017D0D0B23D
:10041000D9B2401A2106014310D190B299B2401AC4
:10042000210401430AD110021902000A090A401AE4
:100430002102014302D1100E190E401A70BD9A42DA
:10044000DFD010BA19BA884201D9012070BD00204E
:10045000C04370BD02780B78401C491C002A09D0AB
:100460009A4207D102780B78401C491C002A01D01F
:100470009A42EFD0D01A70BD010101010022030998
:100480008B422CD3030A8B4211D300239C464EE0AF
:1004900003460B433CD4002243088B4231D303096B
:1004A0008B421CD3030A8B4201D394463FE0C3091D
:1004B0008B4201D3CB01C01A524183098B4201D335
:1004C0008B01C01A524143098B4201D34B01C01A20
:1004D000524103098B4201D30B01C01A5241C30898
:1004E0008B4201D3CB00C01A524183088B4201D307
:1004F0008B00C01A524143088B4201D34B00C01AF3
:100500005241411A00D201465241104670475DE007
:10051000CA0F00D04942031000D34042534000228A
:100520009C4603098B422DD3030A8B4212D3FC2233
:10053000890112BA030A8B420CD3890192118B42B2
:1005400008D3890192118B4204D389013AD09211C8
:1005500000E08909C3098B4201D3CB01C01A524183
:1005600083098B4201D38B01C01A524143098B424C
:1005700001D34B01C01A524103098B4201D30B0135
:10058000C01A5241C3088B4201D3CB00C01A52415A
:1005900083088B4201D38B00C01A5241D9D2430841
:1005A0008B4201D34B00C01A5241411A00D201467E
:1005B000634652415B10104601D34042002B00D5E8
:1005C0004942704763465B1000D3404201B50020AA
:1005D000C046C04602BD7047704770470246C80F0C
:1005E000C00781434B0030B54B405B009B0D20D0D2
:1005F0001923DB06C91801231B05994220DB0324BC
:10060000A40704251346AB400BD3002B04D1EB0603
:1006100013409B00E34204D4012464070023121911
:100620005941FF231B0599420BD2C9000143500FCA
:1006300009E0CB0204D501430803024305D0054875
:1006400030BDFF21C905084330BD08460721090513
:10065000884330BD0000C07FF0B50C46871A9C412E
:100660000D46861A9D4103D2C01BA141D219634198
:100670000D0D1F0DC94EEC1BAE435CD07F057F0DE9
:100680000026002F51D02D05AC46A943DD020123E1
:10069000ED0A1B051D4320231B1B24D41746E740EE
:1006A000381871412F46E740CC199D402818314633
:1006B00061410C0D27D161449A4013D50023401CA1
:1006C000594152000ED14008400001224B00520512
:1006D000D34207D305204007C14201D5B04900E00D
:1006E000B0493046F0BD6B00002A00D001229A18B4
:1006F0001F23203C1B1B01D5002302E0E5402818E6
:1007000071410C0DD7D0012424050919C407CD0768
:1007100040084908E40F28436144002CD5D0002448
:10072000401C61419A40D0D1CDE76A05520DD9D124
:10073000C90FC907D5E79C4D4E00002801D0012400
:1007400000E0002434195F00002A01D0012600E0F7
:100750000026BE19954FAC420CD8AE420AD8B4421E
:1007600006D001256D05EC42BCD010461946F0BDFF
:100770009942FCD000203946F0BDF0B51FB40C46BC
:100780000F46811A9F412546861A9D4106D20125B2
:10079000ED076F40401ABC4152187B41210D1E0DE0
:1007A0008D1BAC467D4D8D437ED075056D0D7CD087
:1007B0000D05AE46AC431B031B0B794D52429D41C8
:1007C000202366469B1B14D31746F7403818002693
:1007D0000090744160462F460741E41900989D40FF
:1007E0002818664116D4714671189A4025D5012300
:1007F00020E093182A466A415200002B00D0521C78
:100800001E23203E9B1B002B61DD3541EE1728186F
:100810006641E8D5001876415B1C9A4000D3401C25
:100820004B05F3181524E34010D3002B52D071462A
:100830007118D30FC01802D3491C05B0F0BD0123B5
:10084000DB079A42F9D140084000F6E70122520541
:10085000B21801D1002853D00123CC0ADB029943FE
:10086000891E002A08D1020C03D0020C00041039A2
:1008700002E00246002020390023550B05D1120268
:100880000823550B01D152010D23550C01D1120142
:100890001B1DD50C01D192009B1C150D01D15200DE
:1008A0005B1C2025EE1A01E02CE022E00546F54015
:1008B00015439840CA1AE10769181305C918002A98
:1008C000BBDA032040070818C10FC9070FE07146C3
:1008D0006118B2E7F10740080843711071444A00FB
:1008E0000CD001235B059A42A7D2C90FC90700208B
:1008F000A3E74905490D26D1002001E00028F4D1E5
:1009000000219AE7284D6600002801D0012100E06F
:10091000002171185F00002A01D0012600E00026A6
:10092000BE19224FA94210D8AE420ED8B14208D00B
:1009300001256D05E94206D01946A802414010463E
:100940007BE79C4201D0214677E70020394674E7D7
:1009500010B50C465C4005D50124E4076340FFF761
:100960000CFF10BDFFF778FE10BD30B40C465C40A4
:1009700004D50124E407634030BC6DE630BCFCE6DE
:1009800070B50124E40761400D465D4002D4FFF7D5
:1009900063FE70BD6340FFF7F0FE70BDFF0700000F
:1009A0000000F0FF0000F07F0000E0FF0000F87F93
:1009B000F0B5F94D0C091E092C402E402F468BB086
:1009C000A7437DD0B543FCD0002E7AD0002CFCD0BC
:1009D0000D465D40ED0F2543AC1BFF25AD046419AA
:1009E0000894C502440DC9022143500DDC020443A2
:1009F0000120C00701430443D2020191200C110CD5
:100A000000958C46010423468B430A9161460904F4
:100A1000E24D8A430991010A7D44491980390978D8
:100A200005464D4301266D18F605751B6943C90C33
:100A3000640B891C4C436418B5012C1B250C2E0437
:100A4000B4434C434D43210C691889090591009D1D
:100A5000E90701D00121C90704912C4601996708D3
:100A6000CD072F434C08059DE10B4D432D0C294626
:100A70006646754302950D4645432E46029D7D1BF5
:100A8000B44100950D465D4301942C0C2F040D4696
:100A90005543AE462D0C3D43029503947546049C88
:100AA0002D04641B049406D2029C039D641C002642
:100AB00075410395029401AC70CC009F7D1B01E051
:100AC0003EE162E1B4410904009507910194059962
:100AD000A4086143090C0C464443650BE7040C462B
:100AE00066467443A646640B3C43039502947446E1
:100AF000049DE4042C1B049406D2029C039D641CF8
:100B0000002675410395029401AC70CC009F7D1BBB
:100B1000B44101940C465C430095650FE7000C4618
:100B20005443A646640F3C43039502947446049DC7
:100B3000E4002C1B049406D2029C039D641C002636
:100B400075410395029401AC70CC009F7D1BB441AC
:100B5000AE09AF06049DC900AD092F43049DA4064C
:100B6000AD060495079D344369180791059DE10B77
:100B70004D432D0C29466646754302950D46454367
:100B80002E46029D7D1BB44100950D465D430194A8
:100B90002C0C2F040D465543AE462D0C3D430295BB
:100BA00003947546049C2D04641B049406D2029C95
:100BB000039D641C002675410395029401AC70CC22
:100BC000009F7D1BB44101948C050694079C890A03
:100BD000611800950791019C0599A4086143090CCF
:100BE0000D464543680BEF040D46644665436C0BA8
:100BF0003C43049FED047D1BAC4602D20025641CDF
:100C00006841009E019D371B854108465843019568
:100C10000C46460FC5005443600F28436546E40068
:100C20002C1B02D20025401C6E41019D3F1AB5418C
:100C30002846BD09800628438446A009BF064E0207
:100C40000699A40676180743079D002068410A9973
:100C5000079019430020099B00906046FF19134339
:100C60004041E20F64003A43A4460446D71A8C413F
:100C7000A04203D90120009020463A46C70F94189D
:100C800040416246D20F2243644664000494009CB3
:100C9000BE466400D71AA446044602978C417746A4
:100CA000002F01D1A04204D96046401C8446029A1C
:100CB0002046C40FA64694184041049A0546D20F18
:100CC000224364466400D31A8D417146002901D144
:100CD000A84202D928461A46641C10430122002863
:100CE00000D0164361020020079B891904465C412D
:100CF0000223002C02DB491813466441089DCE0AEA
:100D00002D145D194B056705E10A2C050D1908998D
:100D10003E43C9076940002B08D0934006D3002208
:100D2000761C5141002B01D1760876001C4A002D1B
:100D300043DB154241D0AA433FD030460BB0F0BD53
:100D400006180D464D41174C7642AC411AD3951802
:100D50001C465C41134A6D42A24113D30122520545
:100D60004C00D4420AD15C00D4420BD04B4002D597
:100D700092021143E2E749004908DFE75940C90FF1
:100D8000C90718E000200849D8E7054801420DD1FD
:100D90000342F7D0F2E700000000FF07EB7C000001
:100DA0000000F07F0000E0FF0000F87F114859408C
:100DB0000143C01241400020C0E70123089A9B066E
:100DC0009A4205DC032252078918C90FC907B5E703
:100DD000052252078918074A1143D2125140ADE744
:100DE00070B515461C4602460B4628462146FFF7BD
:100DF000DFFD70BDFFFFFF7F30B50346CA02400D27
:100E00001043164D164C0A1502D02043002A06DB6B
:100E1000AA1A002A12DDD040FF2A0BDC30BD520591
:100E2000520D01D140004008AA1A07D4D0404042D8
:100E3000FF2A01DD002030BD0028FCDD4A00002B28
:100E400001D0012000E00020101801225205D042FC
:100E5000F0D8C817C043604030BD00001E04000039
:100E6000000000801F22030C02D10F22000402D0D8
:100E7000030E03D004E00020014670470002083A48
:100E8000030F01D10001121F830F01D18000921EB8
:100E9000002801DB4000521E120551184205C01205
:100EA000411810467047C10FC90700D040420122C7
:100EB00092071143D6E701218907D3E7F0B58B4CA0
:100EC0000F09254689B0BD437BD01D092646AE4398
:100ED000FAD00E465E402740F60F3E43254071D0C3
:100EE00024012142FBD0FF24AD19A4042D1B03953E
:100EF00001252D05DB02DB0AC9022B43C90A294360
:100F00001E010901040F130F050121431701880B6E
:100F1000820391432D098C46A90B1E438A039543F6
:100F2000B30B9A0396433F09BA0B9403A743029667
:100F30002E467E430497B6464E19D7190C460196A5
:100F4000544305977E43371B7646BF1B3601B64692
:100F5000BE0B361900967646BC043719009C01D3A7
:100F6000641C00946400002F01D001263443029ECB
:100F7000049F754366467E430496760034196E00DE
:100F800034190094029C019E1C196643751BAE46E1
:100F9000069465464519059C05956C43594375466D
:100FA0000891691A0191049E01465143A41B0491C2
:100FB000611A009C0791E10605D0610901221143E5
:100FC00002E072E06EE06109089D00272C0A2D0600
:100FD0006918049D7C412A0A2D066918019D624109
:100FE000AC0DAD026D185441079A910D920255193E
:100FF0006141029A644658435443069B059A5A43FA
:10100000121A131B9A0E9B015B187A41010B000503
:10101000C3185141220A200644195A419A4200D26B
:10102000491C01204002814203D315230226F643C6
:1010300002E014230326F6432020C51AA9401746D0
:10104000AF40DA400A4320460399D8400914731888
:1010500019055118039A3843D2075140AC4009D0C2
:101060000122944006D30022401C5141002C01D1A2
:10107000400840001E4A934212D301220398920670
:10108000904207DB0520400709181A480143C012A7
:10109000414004E0032040070818C10FC9070020A1
:1010A00009B0F0BD0020F107FAE705180C464C41E5
:1010B00011486D42A04115D394181A465A410E4862
:1010C000644290410ED301204A004005824209D378
:1010D0005A00824206D35940C90F084AC907002066
:1010E0001143DDE700200649DAE700000000FF07B2
:1010F000FE070000FFFFFF7F0000E0FF0000F07F21
:101100000000F87F0121C9050123411842001B0698
:10111000D3185B0E0AD0C1100722D20689184007E7
:101120005242D14201D5520089187047090208D5B0
:101130000146002A03D0C10FC9070020704710469E
:101140007047420202D0002002497047072109057A
:101150000143F4E70000F87FF0B5FF252D04C60930
:10116000C209FF2704462E400137CB093E434840C1
:101170002A402B400746002A6BD0002B69D0AA4298
:1011800067D0AB4265D0002800DA32460125ED0574
:1011900029432C4309022002090AD21A4B0C7F244E
:1011A000E31A434C000A7C44E35C7D2424041219B6
:1011B00014145B00A218884201D3521C00E04000C6
:1011C00049420C465C4324115C43DB016415E3187F
:1011D000040A5C43C502200D0C4644436419250AE9
:1011E0005D432303EC0C0D46654300030019EB1827
:1011F0004C42A34201D35B18401CD4052018002B9D
:1012000007D05B00C91804D3401C002901D1400855
:1012100040003F2189048A4209D3002A08DC1106D4
:10122000090F04D0032149074018C00FC007F0BDC3
:1012300001224100120689187F2252069142F6D2FD
:1012400005214907C84201D59010F0BDFF20C00517
:10125000F0BD002F00DA32461648AA4207D2AB4250
:1012600005D21902090E17D0F80FC007F0BDFF25EF
:1012700063002D06AB42F9D84900A942F6D8AB422B
:1012800001D1A942F2D0A94201D1002101E06100BF
:101290004908D0050843F0BD1102090EFBD0FF201C
:1012A0000243D005F0BD0A460146104654E700004F
:1012B000DD7500000000C07F10B501469E240002CD
:1012C000CA15A307002A02D01843002A04DBA21A79
:1012D000002A0CDDD04010BD1206120E01D14000D4
:1012E0004008A21A03D4D04040420028F3DDFF2278
:1012F00048001206904201D9002010BDC817C04313
:10130000584010BD1F22030C02D10F2200041CD034
:10131000030E01D10002083A030F01D10001121F90
:10132000830F01D18000921E002801DB4000521E75
:10133000D2055118021251181922904004D3491CA9
:10134000002801D14908490008467047C10FC90764
:1013500000D04042012292071143D3E701218907BF
:10136000D0E710B500F032F9006810BD10B50446A2
:1013700000F02CF9046010BDF8B5224C4E00069D1B
:10138000A6420AD8A64201D1002806D15E00A64294
:1013900003D8A6420AD1002A08D00D2424042542ED
:1013A0002CD02946002000F015F9F8BD0C461C434E
:1013B0000CD4994202D0EFF30080F8BD904202D0E5
:1013C000EFF30080F8BDEFF30080F8BD0924240797
:1013D000E5008B4206D0EFF30080A043591A06D2F5
:1013E000284304E0101A05D3EFF30080A04380F3F4
:1013F0000088F8BDEFF30080A043F1E7009500F00E
:1014000001F9F8BD0000E0FF70B505464800440D45
:10141000124B0020002C0AD0634008D09A4206DA12
:101420006642B24203DD12054019514170BD002CE5
:1014300008D0002B09D0C90FC907002AF6DB084ADB
:10144000114370BDC90FC90770BD28460A03104378
:1014500002D00020034970BD284670BDFF07000080
:101460000000F07F0000F87FF0B53D4B02460C46CF
:101470001C400020002C63D03A4D8B4366D00029DD
:101480006BDB0B0D1D05A94301252D052943012407
:10149000FD33E34001D392184941FF3381339C4629
:1014A0008B02940D0121234389074C4292020027AD
:1014B0001B198C105D1A04D42D1B02D42B46650019
:1014C000491992185B416408F4D15C1A08D40125CB
:1014D000ED07EE175519744102D42A462346491CDC
:1014E00094185B41012292071D46E61B8D4106D4EC
:1014F000B61A854103D42B46550034467F1924196A
:101500005B415208802AEFD1234300D002233846A2
:101510000A22D04001D3012213438A0510436246B8
:10152000890A12058918002B09D00122D34002D361
:101530000022401C5141002B01D140084000F0BD69
:101540000B03134307D0C90FC907F0BD08031043AD
:1015500003D1002901DB1046F0BD00202946F0BD73
:101560000000F07F0000F87F10B5FF231B06440049
:101570009C421DD84C009C421AD80346124A0B4389
:1015800007D4401A02D3EFF3008010BDEFF30080C0
:1015900010BD081A06D2EFF3008001219043C9075D
:1015A000084302E0EFF30080904380F3008810BD11
:1015B0000D231B041A4204D01146002000F00AF843
:1015C00010BD00F029F810BD0000009000487047E1
:1015D00094030020C80212D54803400F002804D00D
:1015E000C803C043012188407047EFF30080000129
:1015F000000903210907084380F300887047002091
:101600007047000010B500200249029A00F037F838
:1016100010BD00000000F87F10B5024800F02FF860
:1016200010BD00000000C07F0048704794030020F8
:101630007546FFF7F9FFAE46050069465346C008F8
:10164000C000854618B020B5FEF79CFD60BC0027A1
:101650004908B6460026C0C5C0C5C0C5C0C5C0C57E
:10166000C0C5C0C5C0C5403D49008D46704710B5D6
:101670000446C046C0462046FEF759FD10BD10B5D1
:101680000C461107090F092904D00A290AD0082994
:101690000CD104E011460820FFF79CFF06E051063C
:1016A00006D501E0510601D50120C007214610BD35
:1016B000D10607D501010909CC084907000E00062B
:1016C000044309E0410F20024907000A0143200EAC
:1016D00000061D22D14101430846E7E701491820D1
:1016E000ABBEFEE726000200704770B58C18057887
:1016F000401C6B075B0F01D10378401C2A1106D1F7
:101700000278401C03E00678401C0E70491C5B1EEA
:10171000F9D12B0705D40023521E0DD40B70491CA0
:10172000FAE70378401CCB1A921C03E01D780D7079
:10173000491C5B1C521EF9D5A142D8D3002070BDB4
:1017400010B588B004460121480201F0EBFD0121EB
:101750000320400401F0C6FD032168468177002183
:10176000C177230002F0AEFE0C0708090A0B0C0D2E
:101770000E161718212A00BF00BF00BF00BF00BF10
:1017800000BF00BF6846848307A90920C00600F097
:10179000ABFF14E000BF00BF2046083869468883CD
:1017A00007A9164800F0A0FF09E001208002694661
:1017B000888307A9114800F097FF00E000BF00BF31
:1017C00000200190702002900120800203900020F0
:1017D0000690059001A90A4800F036F800231A4641
:1017E0002146074800F048F80121054800F020F89C
:1017F0000121034800F064F808B010BD000400485F
:1018000000240140014600BF084800680003000FA3
:101810008842F9D100BF05484069C007C00F0028C1
:10182000F9D0024800680005000D7047002401400F
:10183000002904D0426801231A43426003E0426851
:10184000520852004260704710B5024600205068AE
:10185000C00BC0030C684B6823431843506090686A
:10186000044B18400C694B6923438C68234318438D
:10187000906010BD800000FF70B5144600224268E1
:101880000F26B6021546B5432A469D022A434260FA
:10189000202905DAC56801268E403543C5600CE075
:1018A000FF2904D1C568054E3543C56005E0FA2916
:1018B00003D1C5682D0C2D04C56070BDFFCF00009D
:1018C000002905D08268FF2301331A43826004E0B7
:1018D0008268FF2301339A4382607047F0B587B076
:1018E0007D4801787D480078FEF7D2FD7A4800787F
:1018F000401E814202D1012079490870794801785F
:1019000076480078FEF7C4FD76480078401E814294
:1019100002D1012072494870734801786F480078FD
:10192000FEF7B6FD70480078401E814202D10120CA
:101930006B4988706D48017868480078FEF7A8FD0B
:101940006A480078401E814202D101206449C87073
:101950006748017861480078FEF79AFD644800788E
:10196000401E814202D101205D4908715B48007828
:10197000401C5A4908705A48407900280CD0002071
:1019800057494871FF2391336422FF212D31009084
:10199000042000F02FFD9DE051484078002812D02F
:1019A00000204F494870534903C9FEF717FE04460B
:1019B000002000900346024601904F4801682046EF
:1019C00000F07AFC86E046480078002825D0002008
:1019D0004349087049480068FFF76EFC04B2484864
:1019E0000068FFF769FC05B20020049045490295A4
:1019F000039405900420085E0A460221515E1646B3
:101A0000002300910190F35E0A22B25E0821715E0C
:101A10000620305E00F096FB5CE0314880780028BC
:101A200003D000202E49887054E02D48C07800284B
:101A30001FD000202A49C87000233348008880B294
:101A40003249098889B2324A128892B2314C0393E2
:101A50000092019102902488A3B22F4C2488A2B254
:101A60002E4C2488A1B22E4C2488A0B200F0D2F9CA
:101A700030E01B480079002803D000201849087185
:101A800028E017488079002803D000201449887185
:101A900020E01348C079002815D000201049C871F3
:101AA00002900390049005901E4800681D49096843
:101AB000009101901C48002203681C480168022024
:101AC00000F040FA06E00648007A002802D0002024
:101AD0000349087207B0F0BDE1010020E0010020D9
:101AE000B2020020E2010020E3010020E401002016
:101AF000E5010020D0000020500100206C000020F3
:101B000068000020A402002004020020000200203F
:101B1000A4000020A0000020400000203C00002085
:101B200038000020F8010020F4010020F00100201E
:101B30007FB504460D460026002004E0215C89198B
:101B4000CEB2411CC8B2691E8142F7DC6019203850
:101B5000C07FB04200D07FBD2078AA2802D1607833
:101B6000AF2800D0F7E7A078012811D1207901280B
:101B700001D1484908732079022802D10120454942
:101B800048732079032803D1012042490873487320
:101B9000A078022810D12079012806D13E49887109
:101BA000C871087248728872C8722079A02802D160
:101BB00001203949487100BFA078112853D12179FB
:101BC000090209B2627911430846FFF76CF9334AFA
:101BD000334B01910090FFF771F903910290FEF7EA
:101BE000FDFC30490860217A090209B2627A11438A
:101BF0000846FFF758F9294A294B01910090FFF751
:101C00005DF903910290FEF7E9FC27490860A17A8B
:101C1000090209B2E27A11430846FFF744F91F4A64
:101C20001F4B01910090FFF749F903910290FEF7D5
:101C3000D5FC1E490860217B090209B2627B114371
:101C40000846FFF730F9154A154B01910090FFF750
:101C500035F903910290FEF7C1FC15490860A078A0
:101C6000314600F09DF8A078132803D1A0783146C2
:101C700000F096F8A078142803D1A078314600F03F
:101C80008FF8A078152803D1A078314600F088F8A5
:101C900000BF60E7A4020020B2020020FCA9F1D23C
:101CA0004D62503FF0010020F4010020F8010020B7
:101CB000FC01002010B5044635480078002807D103
:101CC000AA2C05D1012032490870324804705EE028
:101CD0002F480078012807D1AF2C05D102202C49CC
:101CE00008702C48447052E029480078022807D137
:101CF000F12C05DA0320264908702648847046E056
:101D00002348007803280CD1322C0ADA0420204919
:101D100008702048C4702048047000201F490870D3
:101D200035E01B48007804281AD11B4800780028A9
:101D300016DD19480078401E1749087017480078CA
:101D400016490978491C154A1170001D11490C5497
:101D50001148007800281AD105200D49087016E0B6
:101D60000B48007805280FD10020094908700B485E
:101D70000078001D07490C5408480078401DC1B286
:101D80000448FFF7D5FE02E000200149087010BDAD
:101D9000E8010020F0020020E6010020E701002019
:101DA00070B504460D46AA200D4908704870EF2012
:101DB00088700220C8700846047145710026002012
:101DC00005E00749095C8919CEB2411CC8B2062852
:101DD000F7DB03488671072100F004F870BD0000AE
:101DE000BE02002070B505460E4600240CE0295DB9
:101DF000074802F019FB00BF0121054802F09DFAD7
:101E00000028F9D0601CC4B2B442F0DB70BD000001
:101E1000003801407FB50024AA222146641C4848AE
:101E200042542146641C425406222146641C4254FA
:101E300000222146641C4254684642782146641CB4
:101E40003F484254684602782146641C3C4842544C
:101E5000684642792146641C3948425468460279F2
:101E60002046611CCCB236490A546846427A204664
:101E7000611CCCB232490A546846027A2046611C81
:101E8000CCB22F490A546846427B2046611CCCB232
:101E90002B490A546846027B2146601CC4B228487C
:101EA000425408A842782046611CCCB224490A5406
:101EB00008A802782046611CCCB221490A5408A81F
:101EC00042792046611CCCB21D490A5408A8027907
:101ED0002046611CCCB21A490A5408A8427A20460E
:101EE000611CCCB216490A5408A8027A2046611C2B
:101EF000CCB213490A5408A8427B2046611CCCB2DC
:101F00000F490A5408A8027B2046611CCCB20C4938
:101F10000A54201FC8700025002005E00849095C0C
:101F20004919CDB2411CC8B2A042F7DB2046611C62
:101F3000CCB203490D5421460148FFF753FF7FBD42
:101F4000BE020020FFB583B005460E460024AA223B
:101F50002146641C794842542146641C4254284658
:101F60000F30C2B22146641C7448425400222146FC
:101F7000641C42547249304604F0EEFF0190FFF7B2
:101F80009BF901B202916846427A2146641C6B4873
:101F900042546846027A2146641C684842546849A3
:101FA000059804F0D9FF0190FFF786F901B202917C
:101FB0006846427A2146641C604842546846027A68
:101FC0002046611CCCB25D490A545D49069804F074
:101FD000C3FF0190FFF770F901B202916846427A9F
:101FE0002046611CCCB255490A546846027A204604
:101FF000611CCCB251490A5451490C9804F0ACFF11
:102000000190FFF759F901B202916846427A2046E1
:10201000611CCCB249490A546846027A2046611CC8
:10202000CCB246490A5446490D9804F095FF0190F8
:10203000FFF742F901B202916846427A2046611CDC
:10204000CCB23E490A546846027A2046611CCCB2A2
:102050003A490A543A490E9804F07EFF0190FFF77E
:102060002BF901B202916846427A2046611CCCB23B
:1020700032490A546846027A2046611CCCB22F4984
:102080000A542F490F9804F067FF0190FFF714F9E5
:1020900001B202916846427A2046611CCCB22749BF
:1020A0000A546846027A2046611CCCB223490A547D
:1020B0002349109804F050FF0190FFF7FDF801B29A
:1020C00002916846427A2046611CCCB21B490A54F0
:1020D0006846027A2046611CCCB218490A54184955
:1020E000119804F039FF0190FFF7E6F801B2029170
:1020F0006846427A2046611CCCB210490A546846B0
:10210000027A2046611CCCB20C490A54201FC870C8
:102110000027002005E00949095CC919CFB2411C1C
:10212000C8B2A042F7DB2046611CCCB203490F5471
:1021300021460248FFF756FE07B0F0BDBE02002060
:1021400000007A44FFB581B005460E460024AA225D
:102150002146641C574842542146641C42540222C2
:102160002146641C425400222146641C42540095BE
:10217000684642782146641C4E48425468460278BC
:102180002146641C4B4842540096684642782146DA
:10219000641C48484254684602782046611CCCB210
:1021A00044490A5403990091684642782046611CCC
:1021B000CCB240490A54684602782046611CCCB231
:1021C0003C490A5404990091684642782046611CB3
:1021D000CCB238490A54684602782046611CCCB219
:1021E00034490A540A990091684642782046611C95
:1021F000CCB230490A54684602782046611CCCB201
:102200002C490A540B990091684642782046611C7B
:10221000CCB228490A54684602782046611CCCB2E8
:1022200024490A540C990091684642782046611C62
:10223000CCB220490A54684602782046611CCCB2D0
:102240001C490A540D990091684642782046611C49
:10225000CCB218490A54684602782046611CCCB2B8
:1022600014490A540E990091684642782046611C30
:10227000CCB210490A54684602782046611CCCB2A0
:102280000C490A54201FC8700027002005E00949A6
:10229000095CC919CFB2411CC8B2A042F7DB204685
:1022A000611CCCB203490F5421460248FFF79AFD46
:1022B00005B0F0BDBE020020FFB583B00D46164646
:1022C000002406980190AA222146641C47484254E3
:1022D0002146641C425401222146641C42540022BF
:1022E0002146641C42544249039804F035FE009094
:1022F000FEF7E2FF01B202916846427A2146641C71
:102300003A4842546846027A2146641C374842548F
:102310003749284604F020FE0090FEF7CDFF01B2B9
:1023200002916846427A2146641C3048425468460D
:10233000027A2046611CCCB22C490A542C49304602
:1023400004F00AFE0090FEF7B7FF01B20291684662
:10235000427A2046611CCCB224490A546846027A6B
:102360002046611CCCB221490A546846C2792046F5
:10237000611CCCB21D490A54684682792046611C12
:10238000CCB21A490A54684642792046611CCCB244
:1023900016490A54684602792046611CCCB213499A
:1023A0000A542146621CD4B2104A0C98505421465B
:1023B000621CD4B20D4A0D985054201F1146C870AB
:1023C0000027002005E00949095CC919CFB2411C6A
:1023D000C8B2A042F7DB2046611CCCB203490F54BF
:1023E00021460248FFF7FEFC07B0F0BDBE02002008
:1023F0000000C8427FB505460024AA222146641C7D
:102400002D4842542146641C425400222146641C3B
:1024100042542146641C42542146641C455468467B
:1024200042792146641C2448425468460279214678
:10243000641C214842546846427A2046611CCCB252
:102440001D490A546846027A2046611CCCB21A49DA
:102450000A546846427B2046611CCCB216490A5495
:102460006846027B2046611CCCB213490A5408A876
:1024700042782046611CCCB20F490A5408A8027861
:102480002046611CCCB20C490A54201FC87000269B
:10249000002005E00849095C8919CEB2411CC8B288
:1024A000A042F7DB2046611CCCB203490E54214602
:1024B0000148FFF797FC7FBDBE02002001460029BE
:1024C00001DB084670474842FCE7FFB583B00C4685
:1024D000029400200190002726E000261CE0721CD8
:1024E000039951430846791CFDF7C8FF0546A542EC
:1024F00001D9281B00E0601B05460298A84204D9B8
:10250000029505980670069807700298002802D177
:102510000120019002E0761C402EE0D300BF01981C
:10252000002800D002E07F1C042FD6D300BF029801
:1025300007B0F0BD06490978002901D1012100E06A
:102540000021034A11700021024A117070470000F7
:102550004F0000205000002010B504460F480078BE
:10256000401C0E49087005210C480078FDF790FFCB
:10257000002907D10A480078401E09490870002048
:102580000649087006480078032805DA0120054945
:10259000087002200249087010BD0000A00200204F
:1025A000BC0100204E0000200121034A1170034AA3
:1025B0001170034A117070474E000020BD010020C9
:1025C0003801002006490978002901D1012100E0E5
:1025D0000021034A11700021024A11707047000067
:1025E000500000204F00002010B504460F4800782E
:1025F000401C0E49087005210C480078FDF748FF83
:10260000002907D10A480078401C094908700020B9
:1026100006490870064800783C2805DD0120054978
:1026200008703C200249087010BD0000A002002084
:10263000BC0100204E0000200121034A117002213C
:10264000024A1170704700004E000020380100203F
:1026500000B585B00121880300F064FE0121084621
:1026600000F060FE0121480400F03CFE03216846B2
:1026700081741821C17401214902018204A9092031
:10268000C00600F031F801220921C80600F0D6F892
:1026900004216846C1740902018204A90920C00608
:1026A00000F022F801220A210920C00600F0C6F835
:1026B000E120400200903021684681800021C180E5
:1026C00001818181182141816946064801F04AFE55
:1026D0000121044801F084FE0121024801F018FEA6
:1026E00005B000BD00380140FCB5024600250026BB
:1026F00001960020002300240096CE7835072D0F88
:10270000CE7810273E40002E01D08E7835430E78CB
:10271000002E27D01468002021E001268640334691
:102720000E881E400196019E9E4217D183000F26FF
:102730009E4000962746009EB7433C462E469E404C
:102740003443CE78282E03D101268640566105E019
:10275000CE78482E02D1012686401661401C0828FA
:10276000DBD314600E88FF2E2CDD5468002026E099
:10277000064608360127B7403B460E881E400196A4
:10278000019E9E421AD183000F269E400096274646
:10279000009EB7433C462E469E403443CE78282EBA
:1027A00004D1064608360127B7405761CE78482E37
:1027B00004D1064608360127B7401761401C082897
:1027C000D6D35460FCBD000008B50121C80400F058
:1027D00089FD0E2168460180032181704821C17066
:1027E00069460248FFF780FF08BD00000008004866
:1027F00008B50121C80400F075FD0121880400F02E
:1028000071FD012189026846018003218170102138
:10281000C17069460748FFF767FF102168460180CD
:10282000032181701021C17069460348FFF75CFFE6
:1028300008BD00000004004800080048F0B500236F
:1028400000244D07EE0E1546B5402B46CD10002D49
:102850000BD1056A4E07F70E0F26BE40B543056241
:10286000056A1D432C4604620AE0456A4E07F70ECE
:102870000F26BE40B5434562456A1D432C4644625F
:10288000F0BD0246002093680B40002B01D00120D0
:1028900000E000207047416170470161704700000F
:1028A00008B50121080500F01DFD402168460180A2
:1028B000032181701021C17069460248FFF714FF9F
:1028C00008BD0000000C0048F0B587B02F4900207B
:1028D000085EFEF73BFD2E4908602C490A20085E81
:1028E000FEF7E1FA04460D4628490820085EFEF787
:1028F000DAFA064622462B4601F0CEFF0022254B8F
:1029000001910090FEF7DAFA234A244B03910290DA
:10291000FEF74EF805910490FDF760FE06901B4906
:102920000020085EFEF7BFFA06461D4A1D4BFEF763
:102930003FF80446FEF760FA00B214490880002010
:10294000085EFEF703FD04462146069801F070FD7F
:10295000154800681549086015491448006804F0D6
:10296000FBFA0446FEF7A8FC124908600749042058
:10297000085EFEF7EBFC1049086004490A20085E77
:10298000FEF7E4FC0D49086007B0F0BDA40200208A
:102990004001002000806640F1D4C853FB2109406B
:1029A0006666666666663040500100203C01002085
:1029B0000000C842540100204401002048010020CA
:1029C00010B5FF2101311048FFF765FF00F0CEFA86
:1029D000012149020C48FFF75EFF02F03BFC02F0C8
:1029E00039FC02F037FCFF2101310748FFF755FFA2
:1029F00002F030FC02F02EFC02F02CFCFF21013131
:102A00000148FFF748FF10BD0004004810B500F072
:102A100081FA00F0ABFAFF2101310448FFF73DFFD6
:102A2000012149020148FFF738FF10BD00040048AA
:102A300010B5FF2101311048FFF72DFF00F096FA85
:102A4000012149020C48FFF728FF02F003FC02F0C5
:102A500001FC02F0FFFBFF2101310748FFF71DFFDA
:102A600002F0F8FB02F0F6FB02F0F4FBFF2101316B
:102A70000148FFF710FF10BD0004004870B505467F
:102A8000002400F05DFA00261EE0FF210131144809
:102A9000FFF701FF02F0DEFB02F0DCFB02F0DAFBE5
:102AA000FF2101310E48FFF7F8FE6006040E0121F8
:102AB00049020B48FFF7E5FE002801D0601CC4B2B4
:102AC00002F0C8FB701CC6B2082EDEDB002D02D05F
:102AD000FFF776FF01E0FFF7ABFF204670BD000077
:102AE00000040048FFB581B006460F461546002495
:102AF00000F06AF8304600F02FF800F0B7F8002830
:102B000004D000F08BF8012005B0F0BD384600F08D
:102B100023F800F0ABF800F057F8711CC8B200F0D1
:102B20001BF800F0A3F8002410E0681EA04204D0B7
:102B30000120FFF7A3FF009003E00020FFF79EFFB6
:102B40000090049900980855601CC4B2AC42ECDBBC
:102B500000F064F80020D7E770B5044600F006FAEC
:102B6000FF2101311748FFF796FE002524E0802061
:102B70002040002805D0012149021248FFF78DFEB0
:102B800004E0012149020F48FFF785FEFF210131D2
:102B90000C48FFF782FE02F05DFB6006040E02F0B7
:102BA00059FB02F057FBFF2101310648FFF773FE86
:102BB00002F050FB681CC5B2082DD8DB02F04AFBBE
:102BC00070BD00000004004810B500F0CFF90121ED
:102BD00049021148FFF761FEFF2101310E48FFF75E
:102BE0005CFE02F037FB02F035FB02F033FB02F033
:102BF00031FB02F02FFB012149020748FFF74BFE92
:102C000002F028FB02F026FB02F024FBFF21013139
:102C10000148FFF740FE10BD0004004810B500F069
:102C2000A5F9FF2101311048FFF735FE01214902C6
:102C30000D48FFF730FE02F00DFB02F00BFB02F037
:102C400009FBFF2101310848FFF727FE02F002FBD4
:102C500002F000FB02F0FEFA012149020248FFF7F0
:102C60001CFE02F0F7FA10BD0004004810B5002465
:102C700000F066F9012149021148FFF70EFE02F04B
:102C8000E9FAFF2101310E48FFF707FE02F0E2FAF0
:102C900007E0601CC4B2642C03DDFFF7BFFF012016
:102CA00010BD012149020648FFF7EBFD0028F0D1D5
:102CB000FF2101310248FFF7EEFD0020F0E70000A0
:102CC0000004004870B506460C461546FFF77CFF29
:102CD0003046FFF741FFFFF7C9FF002803D0FFF799
:102CE0009DFF012070BD2046FFF736FFFFF7BEFFB6
:102CF0002846FFF731FFFFF7B9FF002803D0FFF7A1
:102D00008DFF0120EEE7FFF789FF0020EAE70000D2
:102D100010B57D21C9000E480068FDF7AFFB0446E1
:102D2000601E0C49884200D90CE0601E0A494861C7
:102D30000321081F00F0C2F900200749886107201D
:102D4000086100BF0021481E00F0B8F910BD000066
:102D500010000020FFFFFF0000E000E010B51A485F
:102D60000078401C1849087018480078401C174922
:102D7000087015480078142808DB012189021448DE
:102D8000FFF78BFD00201049087008E00E4800781E
:102D90000A2804D1012189020D48FFF77CFD0B4868
:102DA00000780A2807DB10210A48FFF776FD00208B
:102DB0000649087007E005480078052803D110216E
:102DC0000448FFF768FD10BD390100203A010020DA
:102DD0000004004800080048F0B585B004460D46E0
:102DE00016461F4601AB0E223B21682000F085F8F5
:102DF00000900098002831D16846007901026846A9
:102E00004079014308B22080684680790102684613
:102E1000C079014308B228806846007A01026846FA
:102E2000407A014308B230806846007B0102684660
:102E3000407B014308B238806846807B01026846C7
:102E4000C07B014309B20A9801806846007C0002F9
:102E50006946497C084301B20B980180009805B08F
:102E6000F0BD10B5FFF7D2FD002480226B21682051
:102E700000F0E0F80419642002F0DCF800226B2175
:102E8000682000F0D7F80419032000F08EF8041928
:102E9000002000F081F804197D20C00000F0ACF89B
:102EA000041900223821682000F0C4F80419022215
:102EB0001A21682000F0BEF8041900226A21682057
:102EC00000F0B8F8041900222321682000F0B2F8BD
:102ED000041982223721682000F0ACF8041901227D
:102EE0006B21682000F0A6F8041900226C216820EC
:102EF00000F0A0F80419002010BDF8B504460D46F6
:102F000016461F466106080E3B4632462946FFF725
:102F1000E9FDF8BD10B50121880400F0E3F9FF20B8
:102F2000013005490880032088701020C8700348CC
:102F3000FFF7DAFB10BD0000580100200004004834
:102F400010B50121880400F0CDF9012040020549A7
:102F50000880032088704820C8700348FFF7C4FB2E
:102F600010BD0000580100200004004810B50121E8
:102F7000880400F0B7F901204002054908800320C9
:102F800088701020C8700348FFF7AEFB10BD00002A
:102F9000580100200004004810B50446E006020E67
:102FA0001C21682000F046F810BD10B50446E0066C
:102FB000020E1B21682000F03DF810BD70B50446DC
:102FC0000025BC2C01DB012510E0622C01DB022571
:102FD0000CE02A2C01DB032508E0142C01DB04257E
:102FE00004E00A2C01DB052500E006252A461A210B
:102FF000682000F01FF870BD70B504467D20C00049
:10300000844200DD0446042C00DA042421467D209D
:10301000C000FDF73DFA401EC5B22A4619216820BE
:1030200000F008F82646E10F8919C903080CFFF7DC
:10303000C5FF70BD70B504460D4616466106080E04
:1030400032462946FFF73EFE70BD0000002182781F
:10305000002A27D0184A03231B02D21803789B109A
:103060009B00D15802789207D30EFF229A400B465C
:103070009343194642789207120E03789B07DB0EA2
:103080009A4011430C4A03231B02D21803789B1069
:103090009B00D1500278D306DB0E01229A40064BEA
:1030A0001A6007E00278D306DB0E01229A40024B39
:1030B00080331A607047000000E100E010B500287E
:1030C00019DA1A4A03071B0F083B9B089B00D258CA
:1030D0008307DC0EFF23A3409A438B071B0E840754
:1030E000E40EA3401A43114B0407240F083CA40824
:1030F000A4001A5118E00E4A03231B02D2188308B9
:103100009B00D2588307DC0EFF23A3409A438B0712
:103110001B0E8407E40EA3401A43054B032424022C
:103120001B198408A4001A5110BD00001CED00E01A
:1031300000E100E000B58BB00121C80400F0D2F836
:10314000012206215C48FFF779FB012207215A483A
:10315000FFF774FB012208215748FFF76FFB01229C
:1031600009215548FFF76AFB062207215348FFF75C
:1031700065FB0F21890168460185032108A881723A
:103180001821C1720AA94C48FFF7AEFA802168469F
:103190000185032108A881721821C1720AA9474834
:1031A000FFF7A2FA0121022000F0ACF80121880407
:1031B00000F0B8F8424807900620059000200890DB
:1031C0000690002108A8017105A93E4801F046F8C3
:1031D0003B480790062005900020089006900021AB
:1031E00008A8017105A9384801F038F8702168462F
:1031F00081800121C18000210181418102218181E1
:103200000821C18100210182418201A92D4800F0DD
:10321000B1FE01A92B4800F007FF01A9294800F0E1
:103220006DFF01A9274800F0CBFF0821254800F0D9
:10323000EDFE0821234800F053FF0821214800F04B
:10324000B1FF08211F4800F0FBFF01211D4800F0DD
:1032500047FE01211B4800F063FE0121194800F0E0
:1032600051FE00231A461946184600F02FF8702127
:10327000684681800121C1800021018141810221B4
:1032800081810821C18100210182418201A90E486A
:1032900000F070FE08210C4800F0B8FE01210A4839
:1032A00000F01EFE0121084800F03AFE0121064808
:1032B00000F028FE0BB000BD00080048000C0048DC
:1032C000BF030000000400400048014010B5044C5A
:1032D0006063A163E263024C4034236010BD0000D0
:1032E00000040040002905D0054A52690243044BFE
:1032F0005A6104E0024A52698243014B5A617047A5
:1033000000100240002905D0054AD2690243044B4F
:10331000DA6104E0024AD2698243014BDA61704704
:1033200000100240002905D0054A92690243044B6F
:103330009A6104E0024A92698243014B9A617047A4
:103340000010024010B501214804FFF7CBFF012116
:103350008804FFF7C7FF0121C804FFF7C3FF01215D
:103360000805FFF7BFFF10BDFEB504460025002687
:103370000020019000900027344840680C2108404C
:103380000546042D02D1324820603BE0082D32D1A1
:103390002E480068800E461C2C480068072109054D
:1033A0000840000D401C019028484068690308400F
:1033B00000900098002807D12649714308460199DA
:1033C000FDF75CF820601DE02048406801214904B9
:1033D0000840002807D02049714308460199FDF7AD
:1033E0004DF820600EE01A49714308460199FDF737
:1033F00045F8206006E00C2D02D11848206001E05D
:103400001348206011484068F021084005462D0906
:103410001348475D2068F84060600C484068072109
:103420000902084005462D0A0D48475D6068F840CE
:10343000A06006484068C90008400546ED0A0848F3
:10344000475D6068F840E060FEBD0000001002408B
:1034500000127A00001BB70000093D00409C0000EC
:103460000000002010B500F001F810BD1CB5444864
:103470000068012108434249086000BF40480068D5
:10348000022108400028F9D03E483F4908603F48E3
:103490000068102108433D49086008460068C008DC
:1034A000C000086038490968481E3949FCF7E6FF42
:1034B0000446364800682043344908603048406874
:1034C0002F4948600846406848602F4800683149E5
:1034D000884207D92A4840680121890208432849BF
:1034E000486006E0264840680121890208432449D3
:1034F0004860234840680321090488432049486004
:10350000084600680003000B08606B4601AA1E48CD
:1035100001682148FEF7D9FF194800680003000B35
:103520001749086069460879800609780905084343
:1035300013490968084312490860084600680121D8
:10354000090608430E49086000BF0D4800680121C4
:10355000490608400028F8D00948406880088000E3
:10356000074948600846406802210843044948600A
:1035700000BF034840680C2108400828F9D11CBD51
:103580000010024000D8B8051000002000200240C2
:1035900000366E0100512502001BB700042806D139
:1035A0000649096904221143044A116105E00349EF
:1035B000096904229143014A1161704700E000E06B
:1035C0000B4801680068401C094A1060FF20F53074
:1035D000814202D900201146086006480068002890
:1035E00004D004480068401E02490860704700008B
:1035F0002C0000203000002010B515480068012183
:1036000008431349086008464068124908401049B9
:10361000486008460068104908400D49086008469F
:103620000068012189048843094908600846406808
:103630007F21090488430649486008460068000362
:10364000000B08609F2000048860FFF70BFF10BD8F
:10365000001002400000FFF0FFFFF6FE10B52A2028
:1036600000F064F9002000F02FF9002000F02CF9A0
:10367000002000F029F9A82000F026F92B2000F006
:1036800055F9002000F020F9002000F01DF900207D
:1036900000F01AF9B32000F017F92C2000F046F9D9
:1036A00010BD70B50646FFF7D9FF002408E00025DD
:1036B00003E0304600F06CF96D1C842DF9D3641CD6
:1036C000A22CF4D370BD000038B504460121880453
:1036D000FFF708FE1F21C90268460180032181709F
:1036E0001021C17069467748FEF7FEFF0121C9022B
:1036F0007448FFF7D0F8322001F0FAFD0121C90229
:103700007048FFF7CAF8322001F0F2FD112000F0F6
:103710000DF90A2001F0ECFD3A2000F007F95520E0
:1037200000F0D2F8262000F001F9042000F0CCF8D7
:10373000F22000F0FBF8012000F0C6F8E02000F0D5
:10374000F5F83F2000F0C0F8252000F0BDF81C205F
:1037500000F0BAF81E2000F0B7F8202000F0B4F80E
:10376000122000F0B1F82A2000F0AEF8902000F00E
:10377000ABF8242000F0A8F8112000F0A5F80020F4
:1037800000F0A2F8002000F09FF8002000F09CF864
:10379000002000F099F8002000F096F8E12000F0F9
:1037A000C5F8202000F090F8202000F08DF82020AF
:1037B00000F08AF8202000F087F8052000F084F857
:1037C000002000F081F8152000F07EF8A72000F01E
:1037D0007BF83D2000F078F8182000F075F82520DF
:1037E00000F072F82A2000F06FF82B2000F06CF83F
:1037F0002B2000F069F83A2000F066F8B12000F0C4
:1038000095F8002000F060F8002000F05DF8B4208A
:1038100000F08CF8072000F057F8C02000F086F880
:103820000A2000F051F8022000F04EF8C12000F00C
:103830007DF8022000F048F8C52000F077F84F200E
:1038400000F042F85A2000F03FF8C72000F06EF870
:10385000402000F039F82A2000F068F8002000F03D
:1038600033F8002000F030F8002000F02DF8A820F8
:1038700000F02AF82B2000F059F8002000F024F87E
:10388000002000F021F8002000F01EF8B32000F026
:103890001BF8362000F04AF8002C03D0C02000F0BE
:1038A00013F802E0A02000F00FF8B72000F03EF877
:1038B000002000F009F8292000F038F82C2000F052
:1038C00035F838BD0004004870B5044601210903ED
:1038D0001548FEF7E2FF002522E0012149031248C6
:1038E000FEF7D9FF012003F08BF98020204000284B
:1038F00005D0012189030C48FEF7CFFF04E0012128
:1039000089030948FEF7C7FF012149030648FEF76E
:10391000C4FF012003F074F96004040C681C85B234
:10392000082DDADB70BD00000004004870B50446C5
:10393000012109031548FEF7AEFF002522E0012111
:1039400049031248FEF7A7FF012003F059F9802030
:103950002040002805D0012189030C48FEF79DFF77
:1039600004E0012189030948FEF795FF012149037D
:103970000648FEF792FF012003F042F96004040CB0
:10398000681C85B2082DDADB70BD00000004004819
:1039900070B50446012109031548FEF77EFF002596
:1039A00023E0012149031248FEF775FF012003F0CF
:1039B00027F90120C0032040002805D001218903F8
:1039C0000B48FEF76AFF04E0012189030848FEF76F
:1039D00062FF012149030648FEF75FFF012003F063
:1039E0000FF96004040C681C85B2102DD9DB70BD82
:1039F0000004004810B50121044800F09EFA002898
:103A000003D00121014800F079FA10BD00400140C7
:103A1000FEB50121B64800F090FA00287ED00121C1
:103A2000B34800F06BFA01F0E3F901F079FDB14819
:103A30000078002805D0B0480078401CAE490870D6
:103A400002E00020AC490870AA48007801280BD198
:103A5000AA480078002807D101F042F80120A749C0
:103A60000870A44908700AE0A3480078052806DD1C
:103A700001F02EF80020A14908709E49087001202D
:103A80008007406A00B29E49086000200121890732
:103A900048629C48406A00B29B49086000209949EE
:103AA00048629748006840429549086008460068A7
:103AB000FDF7F9F90646954A954BFDF7FFF90446DF
:103AC0000022944BFDF7FAF901910090FCF786FD76
:103AD000914908608C480068FDF7E5F904468B4A77
:103AE0008B4BFDF7EBF9064600228A4BFDF7E6F912
:103AF00001910090FCF772FD8849086000BF88487A
:103B00000078002806D1FDF77DFE86490860012077
:103B10008349087000BF00BF834800E0E6E00078FA
:103B2000002807D10620FDF76DFE804908600120BE
:103B30007D49087000BF0020FDF764FE0446FDF7D4
:103B40000DFC7B4908600020FDF75CFE0446FDF794
:103B500005FC774908600020FDF754FE0446FDF798
:103B6000FDFB734908600020FDF74CFE0446FDF79D
:103B7000F5FB6F4908600620FDF744FE0446FDF79B
:103B8000EDFB6C49086001F097F900F043FD6A49CC
:103B90006A48006803F0B6F906D37F21C905674873
:103BA000006803F031FA0AD201206549087000204C
:103BB0006449086064490860644908607EE06448BC
:103BC0000088C82871DD00205D49087000F020FFE2
:103BD0005C4908605F48007800284BD000F02AFD5F
:103BE000002847D0484801684548006803F048F875
:103BF00055490860584800880A2832DD01F034FB36
:103C0000012802D0022822D108E03F4801683C4840
:103C1000006802F0FDFF4D49086021E04F48008830
:103C200032280BDA01204E4908704C480088401CAD
:103C30004A49088032204549086007E03248016857
:103C40002F48006802F0E4FF4049086008E02E4871
:103C500001682B48006802F0DBFF3C49086000BFA8
:103C600018E00020394908603B480088401C3A4968
:103C700008800FE03B480088322803DD01203549E9
:103C8000087004E037480088401C3649088000204E
:103C90002D4908602B4909682B4A126888182B495E
:103CA000096801F067FD09E0FFE729480088401C2A
:103CB000274908800021084601F05CFD2A48007869
:103CC000012802D101F0C0FB0EE02848007801284D
:103CD00002D101F0B9FB07E025480078012802D1A4
:103CE00001F064FC00E000BFFFF738F8FEBD000003
:103CF000004401404E0000206500002064000020C8
:103D0000A0000020002C0140A4000020082A9952A5
:103D10004DFFA63F00001440B4000020B800002072
:103D20006600002054000020670000205C00002096
:103D3000680000206C0000200000D8C25001002064
:103D40000C020020380000203C0000204000002031
:103D500044000020460000204C0000204A000020C3
:103D6000BD01002048000020340000204F0000204A
:103D70005000002010B50121044800F0DEF80028B2
:103D800003D00121014800F0B9F810BD00480140FE
:103D900010B50121044800F0D0F8002803D001211B
:103DA000014800F0ABF810BD002C014030B585B0E3
:103DB00004460D46002C04D10121C802FFF7B2FAD7
:103DC00028E0012C04D101210846FFF79BFA21E0ED
:103DD000022C04D101210220FFF794FA1AE0032CEF
:103DE00004D101214803FFF79DFA13E0042C04D10C
:103DF00001210804FFF796FA0CE0052C04D10121FB
:103E00004804FFF78FFA05E0062C03D1012188044E
:103E1000FFF788FA680002907D2109012E480068AA
:103E2000FCF72CFB00900020039001906946087479
:103E3000A1002A4A5058694600F010FAA100274A0A
:103E400050580122114600F08BF8002C06D10123B6
:103E5000022200210D2001F071FC34E0012C06D17A
:103E60000123022200210F2001F068FC2BE0022C2C
:103E700006D1012302220021102001F05FFC22E084
:103E8000032C06D1012302220021112001F056FC4F
:103E900019E0042C06D1012302220021132001F095
:103EA0004DFC10E0052C06D1012302220021152033
:103EB00001F044FC07E0062C05D101230222002179
:103EC000162001F03BFCA100044A5058012100F0EB
:103ED00019F805B030BD0000100000203071000856
:103EE000002904D0026880231A43026003E00268BC
:103EF000014B1A40026070477FFF0000CA43026115
:103F000070470000002904D0026801231A430260B0
:103F100003E00268014B1A4002607047FEFF000098
:103F2000002905D0426C0123DB031A43426403E0FD
:103F3000426C5204520C4264704730B50246002075
:103F40000023002415690D402B46D5680D402C46F2
:103F5000002B03D0002C01D0012000E0002030BD58
:103F6000002A03D0C3680B43C36002E0C3688B43DD
:103F7000C360704770B5002400220023056A1D4EFF
:103F800035400562056AAAB24568ABB28569ACB234
:103F9000184D6F3D2C40B51E2C400D882C43751ECE
:103FA0002A400D892A434D882A43134DA84208D040
:103FB000124DA84205D0124DA84202D0114DA84280
:103FC00012D10C4DED1F2A404D892A43094DED1E9B
:103FD0002A408D882A43074DFF3D2B400A4D2B4038
:103FE0008D892B43CD892B4343608461CD88456304
:103FF000026270BDFEFF0000002C01400044014041
:104000000048014000080140FFFD00000A46002171
:10401000836999B2034B19400B46134319468161DA
:1040200070470000F7FF000070B500240022002355
:10403000056A244E35400562056AAAB24568ABB2EE
:104040008569ACB2204D2C40204D2C400D782D06BA
:104050002D0C2C431B4D103D2A400D892D052D0C98
:104060002A434D882D052D0C2A43194DA84202D014
:10407000184DA8421FD1184D2B408D89AD042D0C31
:104080002B43134DA84202D0124DA84213D10D4D1F
:10409000703D2A404D892D052D0C2A43094D303D98
:1040A0002A408D882D052D0C2A430C4D2B40CD899F
:1040B000AD042D0C2B4343608461CD88856302627F
:1040C00070BD0000EFFF0000FF8F0000FFFC00004C
:1040D000002C014000080140FFFB0000FFF700003A
:1040E0000A460021836999B2034B194013061B0C41
:1040F0001943816170470000FFF7000070B500248C
:1041000000220023056A1F4E35400562056AAAB2E7
:104110004568ABB2C569ACB21A4D90352C40194D0B
:10412000FD352C400D882C43174D2A400D7A2D0665
:104130002D0C2A438D782D062D0C2A43134DA842B1
:1041400002D0134DA84217D1124D2A408D7A2D0668
:104150002D0C2A43104D2A400D792D062D0C2A4393
:104160000E4D2B400E4D2B408D892D052D0C2B43D4
:10417000CD892D052D0C2B434360C461CD88C563CB
:10418000026270BDFFFE0000FFFD0000002C014038
:1041900000080140FFF70000FFFB0000FFEF0000F8
:1041A000FFDF00000A460021C36999B2034B1940A2
:1041B0000B4613431946C16170470000F7FF00002A
:1041C00070B5002300220024056A164E35400562B2
:1041D000056AAAB24568ACB2C569ABB2124D2B40B4
:1041E000124D2B400D782D062D0C2B43104D2A40DF
:1041F0000D7A2D072D0C2A438D782D072D0C2A437F
:104200000C4DA84202D00C4DA84205D10B4D2C40BC
:104210008D89AD052D0C2C434460C361CD880564A8
:10422000026270BDFFEF0000FF8F0000FFFC000086
:10423000FFDF0000002C014000080140FFBF00002C
:104240000A460021C36999B2034B194013061B0C9F
:104250001943C16170470000FFF7000000220368A6
:104260009AB2164B984209D001239B07984205D079
:10427000134B984202D0134B984204D1124B1A4070
:104280008B8813439AB2114B1A408B8913439AB20D
:1042900002608B68C3620B688362084B984208D047
:1042A000084B984205D00A4B984202D0094B9842DD
:1042B00001D10B7C0363012343617047002C014053
:1042C00000040040000801408FFF0000FFFC0000D8
:1042D000004401400048014010B50221094800F0A7
:1042E0002CF800280CD00221064800F00FF80548F1
:1042F00000F01CF80449087008460078FDF7DAFC65
:1043000010BD000000380140980200204161704754
:10431000002904D0826901231A43826103E0826983
:10432000014B1A4082617047FEFF000010B5044641
:10433000204600F075F8C0B210BD02460020936818
:104340000B40002B01D0012000E000207047002A24
:1043500003D003690B43036102E003698B430361EC
:1043600070470000F0B587B004460D4600260020D7
:104370000690059000272746E669FF21D031304698
:1043800088430646A888E9880843298908430643E4
:10439000E661A66976097601A8896989084306431A
:1043A000A66101A8FEF7E0FF0C48874202D10398FE
:1043B000069001E00498069029680698FCF75EF8DC
:1043C000060929680698FCF759F80007000F0590C0
:1043D00026620598606207B0F0BD0000004400400E
:1043E00070B504460D46012202212046FFF7AFFFBB
:1043F0000948844206D12B46002211461B2001F0B9
:104400009DF908E00548844205D12B46002211465B
:104410001C2001F093F970BD0038014000440040B9
:1044200001464868C0B27047CAB2026070470000D7
:10443000F0B58FB007460C462046FCF763FE0546F4
:104440001C4A1D4BFCF73AFD039102901B48006883
:10445000FCF758FE01910090039B029AFCF778FA52
:1044600007910690164801687F20C00502F0F8FD0C
:104470000546FCF747FE05910490079B069AFCF75A
:104480001DFD0B910A900E480168384602F064FD4C
:104490000546FCF737FE099108900B9B0A9AFCF73A
:1044A00057FA0D910C90FCF799F8044908600FB089
:1044B000F0BD00007B14AE47E17A843F500100203C
:1044C0004C01002030B47446641E2578641CAB4255
:1044D00004D3635D5B00E31830BC18471D46F8E762
:1044E0004900CA020243100000D004204A0D01D046
:1044F00001221043044A490D914201D1022108438F
:10450000012800D105207047FF070000F8B50446D8
:104510004F1EC8000838211815461E46086849680D
:104520003A4606239A4310D02A463346FCF7C6FC87
:104530003A46D200083AA3181A687F1E5B68FCF757
:1045400007FA06223B469343EED1022F23D0042FD5
:1045500011D0062F2FD12A463346FCF7AFFCE36A71
:10456000A26AFCF7F5F92A463346FCF7A7FC636A12
:10457000226AFCF7EDF92A463346FCF79FFCE36913
:10458000A269FCF7E5F92A463346FCF797FC636914
:104590002269FCF7DDF92A463346FCF78FFCE36815
:1045A000A268FCF7D5F92A463346FCF787FC636816
:1045B0002268FCF7CDF9F8BD10B50122FCF724FF05
:1045C00010BD10B5FCF7C4F910BD0000034A10B5CA
:1045D00000201107FCF718FF10BD000001FDFFFFD0
:1045E00010B50020FDF7ACF80120FDF7A9F8042074
:1045F000FDF7A6F80520FDF7A3F80620FDF7A0F8C3
:104600000720FDF79DF80820FDF79AF80920FDF72F
:1046100097F810BD1CB50648811E031F821D00912E
:104620000190011D801CFEF7D7FBFEF74DF91CBD64
:10463000A802002010B50E490E48006802F01CFCCC
:1046400004460D480168204602F0DEFC0DD2084900
:104650000848006802F004FD044607480168204647
:1046600002F050FC01D2012010BD0020FCE7000048
:104670000000A041EC01002050010020F0B589B0FD
:1046800004460D464800069172494008884215DBF1
:104690007149884203DC884207D1002C05D02046AE
:1046A0002946FFF789FF09B0F0BD6C48002D02DDF7
:1046B0006B4909B0F0BD6B4909B0F0BD6A49884249
:1046C00011DA6A4988420BDA20462946FFF708FFCB
:1046D000042801D1FFF77AFF2046294609B0F0BD32
:1046E0000026F6435DE06D0061496D08884232DACC
:1046F0006049884219DA0026012332469B0720468A
:104700002946FCF725F90746019101222046294652
:10471000FCF77AFE0022584BFCF727F93A46019B3A
:10472000FCF746F904460D463BE001260022524BB9
:1047300020462946FCF70CF90746009100224E4B13
:1047400020462946FCF711F93A46009BFCF730F960
:1047500004460D4625E04949884219DA022600221E
:10476000474B20462946FCF7A9FB0022424BFCF7A9
:10477000EFF8074602910022414B20462946FCF7FC
:10478000F4F83A46029BFCF713F904460D4608E09C
:10479000032622462B4600203A49FCF709F9044635
:1047A0000D4622462B4610461946FCF787FB074666
:1047B0000B4602460191FCF781FB0246029032480B
:1047C0000B46039106217844FFF7A0FE3A46019B71
:1047D000FCF774FB00902D48019105217844039B60
:1047E000029AFFF793FE039B029AFCF767FB0246CF
:1047F0000B4601990098002E0BDAFCF7A9F8224627
:104800002B46FCF75BFB22462B46FCF7B9F809B0B8
:10481000F0BDFCF79DF822462B46FCF74FFB1C4AE7
:10482000F6007A4493191A685B68FCF79EF82246F2
:104830002B46FCF79AF8174A7A4493191A685B6872
:10484000FCF79EF8069A002AE1DA0122D2075140CD
:1048500009B0F0BD000010440000F07F182D445452
:10486000FB21F93FFB21F9BF0000DC3F0000203EA7
:104870000000F33F0000E63F0000F03F00800340EF
:104880000000F83F0000F0BF664000002840000034
:10489000C23F00008C3F0000F0B51FB4039B5442A0
:1048A0005D00164626439C46F40F6D084B004E4EA5
:1048B0005B082C438E46B44205D847420743FC0FA1
:1048C0001C43B44204D96346FFF77BFE05B0F0BD3C
:1048D000464E6644164309D0CC0F6646B6170227EB
:1048E0003E40264304461C4304D00BE0FFF7C6FEBF
:1048F00005B0F0BD002EFBD0012EF9D0022E32D033
:10490000032E34D014462C430BD0374CA54216D17D
:10491000A3420AD1012189078D438B431946039590
:104920000DE0704600280FDB25E0314F7F44002E5C
:104930000ED0012E10D0022E15D0032E17D0A34278
:104940001DD17046002816DA2A482B4905B0F0BD63
:104950007968386805B0F0BD01227968D2073868F7
:10496000514005B0F0BD2348244905B0F0BD2148B1
:10497000234905B0F0BD1F48224905B0F0BD5B1BBF
:104980001B153C2B02DD1B481E490FE06446002C22
:1049900005DA3C24E34202DA0020014606E0039BEC
:1049A000FCF706F849004908FFF768FE002EE4D03E
:1049B000012E0BD0144A154B022E0CD0FBF7D5FF5D
:1049C0000C4A0E4BFBF7D1FF05B0F0BD0122D20718
:1049D000514005B0F0BDFBF7C8FF064A074BFBF797
:1049E000CFFF05B0F0BD00000000F07F000010C058
:1049F000303F0000182D4454FB21F9BFFB21094032
:104A0000FB2109C0FB21F93F075C143326A6A13C1A
:104A1000F0B587B025480068FCF745FA0646244AF9
:104A2000244BFCF74BFA0446FCF7E6F91F490860F3
:104A300021490220085EFCF736FA06461C4A1F4B45
:104A4000FCF73CFA0191009018480068FCF72BFA3B
:104A50000446019B009AFBF77BFF03910290FCF751
:104A6000CBF912490860164801681648006802F040
:104A7000F7FA059010490020085EFCF767FC07462E
:104A800011480168384602F067FA05460F48059953
:104A9000006802F061FA0646294602F0EDF9044684
:104AA000FCF70AFC0490049807B0F0BD180200203F
:104AB0009A9999999999E93FA40200209999C93F37
:104AC000EC0100203C010020F4010020F001002056
:104AD00010B540210148FDF7DEFE10BD000C004876
:104AE00010B540210148FDF7D8FE10BD000C00486C
:104AF00010B5FFF7F5FF642000F074FAFFF7E8FF48
:104B0000642000F06FFAFFF7EBFF642000F06AFA10
:104B1000FFF7DEFF642000F065FAFFF7E1FF642095
:104B200000F060FAFFF7D4FF10BD10B58C0003460B
:104B300008331A5110BD70B50446606880470546B9
:104B4000E0784007400F002802DD2088401C2080CC
:104B5000E078C009A8421CD0E07838218843E17889
:104B60008906490F491CC900382211400843E070EA
:104B70008006400F032810DBE07880218843E9019C
:104B8000802211400843E070E07838218843E070CB
:104B900003E0E07838218843E070E0784007400F78
:104BA0000300FFF78FFC06042856A7ECC9ECE07859
:104BB000C009E1784906C90F884216D1A078F021D2
:104BC0008843A070A068002802D02046A1688847CA
:104BD00000202080A07800090001401CA070E0782F
:104BE000C008C000401CE07004E0A078F0218843B9
:104BF0008030A070C3E0E078C009E1784906C90FB1
:104C0000884212D0A078F02188431030A070E0686C
:104C1000002802D02046E168884700202080E07804
:104C2000C008C000801CE07012E02088C8280FDD9A
:104C3000A078F02188435030A070E069002802D0AD
:104C40002046E1698847E078C008C000401DE07058
:104C500095E0E078C009E1784906C90F884220D183
:104C6000A078F0218843A070A068002802D02046D8
:104C7000A1688847A07800090001A178491C0907AC
:104C8000090F0843A0702069002802D0204621693E
:104C9000884700202080E078C008C000C01CE07079
:104CA00027E020883C2824DDA0780007000F012899
:104CB0000BD1A078F02188433030A07060690028C3
:104CC00013D02046616988470FE0A0780007000FE5
:104CD00002280AD1A078F02188434030A070A06952
:104CE000002802D02046A1698847E078C008C000AB
:104CF000E07044E0E078C009E1784906C90F8842D5
:104D000019D0A078F02188431030A070E068002806
:104D100002D02046E168884720883C2807DA002036
:104D20002080E078C008C000801CE07003E0E078DC
:104D3000C008C000E07022E0E078C009E1784906D0
:104D4000C90F88420BD1A078F02188436030A07051
:104D5000206A002812D02046216A88470EE0A078F9
:104D6000F02188431030A070E068002802D020466F
:104D7000E1688847E078C008C000E07000BF00BF6D
:104D800070BDF8B504460D46164628212046FBF7AF
:104D90002FFBA078F02188438030A07065606068A8
:104DA0008047C001802108400746E07888433843A7
:104DB000E070E07840218843B1014022114008436F
:104DC000E070F8BD01460948026805E08A4202D158
:104DD0000020C0437047526A002AF7D10348006898
:104DE0004862024801600020F4E700009C020020B5
:104DF00010B50548046803E02046FFF79CFE646A8E
:104E0000002CF9D110BD00009C020020164800685B
:104E1000312109018843144908600846006880214F
:104E20000843114908605F2088621048C86208463C
:104E3000006A891488430C4908620846006A4914CC
:104E40000843094908620846C0690121890388436B
:104E50000549C8610846C06903214903084302495E
:104E6000C8610348486370470048014060EA000099
:104E7000307500007CB50446002000940190002CA1
:104E800010D00A480021019B009AFBF79FF90546C4
:104E90000748C562074801782846FBF7EFFA04493E
:104EA000486302E00020024948637CBD40420F0095
:104EB00000480140BC010020F0B589B000BF00BF30
:104EC0003F480068FCF71EF9044601F075FE0791A3
:104ED00006903C480068FCF715F9044601F06CFEAA
:104EE00005910490374801683548006801F0C4FF17
:104EF0000646FCF707F904460D4604A80FC8FBF761
:104F000034FD06460022304BFBF7D8FF22462B46E5
:104F100003910290FBF74CFD2C4A03C2002213467A
:104F20002A4903C901F042FF0BD2284801460CC8A8
:104F300003C9FBF7C3FF0122D2075140234A03C232
:104F400007E0224801460CC803C9FBF7B7FF1F4A18
:104F500003C21E4903C9FBF741FB054600F06CF98B
:104F6000044600F04FF91A4818490CC803C9FBF76A
:104F7000FCFC044617480CC82046FBF79FFF06467A
:104F80000F46124814490CC803C9FBF797FF324675
:104F90003B4601910090FBF7DBFC03910290FBF78D
:104FA0002BFF0E4908600846006840420C49086023
:104FB000064801684068064A1160506009B0F0BDBB
:104FC000680000206C0000200070A740D000002086
:104FD000300100209000002088000020BC0000204C
:104FE000C00000200146114A12884A43104B5A6102
:104FF00000229A611A46126901231A430C4B1A6166
:1050000000BF0B4A1069C207D20F002A04D0012248
:1050100012040240002AF4D0054A126952085200D4
:10502000034B1A6100229A6170470000260000209D
:1050300000E000E00146002001E000BF401CFF222C
:105040002D329042F9DB704708B501218804FEF744
:1050500049F90121C802FEF765F9062211466648A2
:10506000FDF7ECFB072211466348FDF7E7FBC02183
:10507000684601800421C17069465F48FDF734FB32
:105080005E48C068012108435C49C8600846C068A2
:10509000402108435949C860002088625848C862C6
:1050A00008460068032109028843544908600846FD
:1050B00000686021884351490860084680690121E1
:1050C00008434E49886108468069891508434B4961
:1050D00088610846006A02218843484908620846F8
:1050E000006A2021884345490862084680693021CA
:1050F00008434249886108468068032108433F49C4
:10510000886008460068012108433C490860012185
:1051100003204004FEF7E6F801210846FEF7F2F806
:1051200002220F210920C006FDF788FB022203217D
:105130003148FDF783FB0121C90368460180042142
:10514000C17069460920C006FDF7CEFA08216846FD
:1051500001800421C17069462748FDF7C5FA012086
:105160008007C068012108438907C8600846C068F5
:10517000402108430906C860002088622048C862B0
:105180000846006803210902884301218907086055
:1051900008460068602188430121890708600846A5
:1051A000806901210843890788610846806989155B
:1051B0000843890588610846006A02218843490737
:1051C00008620846006A20218843490608620846AA
:1051D0008069302108430121890788610846806879
:1051E00003210843012189078860084600680121DE
:1051F00008438907086008BD00040048002C0140EE
:10520000FFFF0000014607480068074A10600022BF
:105210000648074B1A6058601046064B1A605A60E1
:10522000704700009C0000209800002000001440FF
:10523000880000209000002010B504460021204680
:1052400001F0E2FE01D8204610BD20460121C90729
:105250004840F9E7002000BF02E000BF411CC8B28F
:105260001E28FADB70470000F8B51A4801681A4892
:10527000006801F001FE0546FCF71EF804462046D2
:10528000FCF764F80090154801680098FBF764FF8C
:105290000746FBF737FF0546114A124B01F0B8FDF0
:1052A00001D20120F8BD2046FCF750F800900B48D1
:1052B00001680098FBF750FF0746FBF723FF054600
:1052C000094A0A4B01F072FD01D20220EAE70020F0
:1052D000E8E700006C000020680000203802002091
:1052E000CDCCCCCCCCCCF43F666666666666E63F39
:1052F00008B5002100910BE00021009103E000BF00
:105300000099491C00917D22120100999142F6D327
:105310000146421E90B20029EED108BDFDF768FAA1
:10532000FDF752FAFDF7BCFAFDF704FF00F0E6F9CD
:10533000FFF756F90120FEF7C7F91F20FEF7B1F974
:10534000FFF782FEFDF784F90A20FDF737FEFDF72F
:1053500088FD00F08FF9FFF7CBFB0A210520FEF74F
:1053600025FD04E0FCF7BAFA0120FFF73BFEF9E760
:105370001C4A1278012A06D100221B4B1A601A4AD5
:10538000403A906310E0174A1278022A06D1164A72
:1053900010600022144B403B9A6305E00022124B40
:1053A0001A60114B403B9A63104A1278012A06D1C9
:1053B00000220D4B403BDA631A46516310E00B4A62
:1053C0001278022A07D1084A403AD1630022064BDC
:1053D000403B5A6304E00022034B403BDA635A63CC
:1053E00070470000B000002040040040B1000020E1
:1053F00070B5022600241BE0002513E0A1000E4A30
:105400005158AA008858FFF735FDA1000B4A5158A2
:10541000AA00895A62000A4B9A5A514388B2FFF790
:10542000E1FD6D1CA00007490858A842E6D8641C9D
:10543000B442E1DB70BD00006C010020740100206B
:10544000E0850008EC85000810B500BF2A48007808
:10545000002804D1FFF7DAFC01202749087000BFBB
:1054600000BF26480078002808D12548006801219F
:1054700008432349086001202049087000BF00BF8D
:1054800020480078002809D11D48006A012109033D
:1054900008431B49086201201A49087000BF1A48D6
:1054A00000681A490968884202D800201749086034
:1054B00017490968154A126892008858FFF7DAFC04
:1054C000144A1268114B1B689B00D258124B1B8860
:1054D000DB1F5A431146114A10681268521C0F4CC8
:1054E0002260FAF7CBFF002904D108480068401C6D
:1054F0000649086010BD0000D4010020D50100203D
:1055000000480140D601002004860008D001002098
:105510009C010020A4010020E0850008CC010020AF
:1055200010B51B480078002800D110BD194800684C
:1055300019490968884207D800201549087016499A
:10554000086016490860F0E715490968124A1268B0
:1055500092008858FFF78EFC124A12680E4B1B68A7
:105560009B00D258104B1B885A4311460B4A1068B7
:105570001268521C094C2260FAF780FF002904D1FE
:1055800005480068401C0449086000BFCDE70000E2
:10559000BD0100200C860008DC010020D80100209D
:1055A000AC010020B4010020E085000810B500BF68
:1055B00027480078002804D1FFF728FC012024495F
:1055C000087000BF00BF23480078002808D1224897
:1055D0000068012108432049086001201D49087026
:1055E00000BF00BF1D480078002809D11A48006A92
:1055F000012109030843184908620120174908706E
:1056000000BF1748006817490968884202D800207F
:1056100014490860144A1268124B1B689B00D15849
:10562000124A10681268521C104C2260FAF726FFCA
:1056300000290CD10E4909680A4A1268920088585C
:10564000FFF718FC07480068401C0649086010BDB9
:10565000C8010020C901002000480140CA01002003
:10566000E4850008C401002064010020C00100207E
:105670005C01002010B5002216491748FFF781FB96
:10568000002216491648FFF77CFB164A03211248F0
:10569000FFF74BFA144A04210F48FFF746FA134A62
:1056A00006210D48FFF741FA114A03210C48FFF784
:1056B0003CFA104A04210A48FFF737FA0E4A06213D
:1056C0000748FFF732FA0448FFF77CFB0448FFF76E
:1056D00079FB10BD555700084403002065570008AA
:1056E0006C030020A925000835250008592500086D
:1056F00039260008C5250008E925000810B5FDF782
:1057000007FBFDF71FFE0820FDF748FF0749084883
:105710000068FAF7B3FE07490870084600787D2153
:10572000C90048430449088010BD000000127A00F7
:10573000100000202400002026000020F8B50446B8
:105740000D4617461E466846047045708670FDF784
:105750007DFCF8BD10B508210148FDF792F810BD99
:105760000008004810B504210148FDF78AF810BD73
:1057700000080048F8B504460D4626462F46F019A5
:1057800023490860F01B234908602148006800286D
:1057900003DD01202049087006E01D48006800284C
:1057A00002DA02201C4908701A480068002803DD4C
:1057B00001201A49087006E016480068002802DA3D
:1057C00002201649087012480068FCF777FE10495D
:1057D000086010480068FCF771FE0E4908600C482C
:1057E000006819214901884202DD0846084908601D
:1057F0000848006819214901884202DD0846054928
:1058000008600448016802480068FFF7B1FDF8BD70
:105810000002002004020020B0000020B10000209F
:1058200010B504460121204600F078F810BD0000B4
:1058300010B50446226891682069FAF7DBFD00285C
:105840000CD16020005D40084000401C60210855DC
:1058500007480168204601F09BF904E00448416BC9
:10586000204601F095F90020A0810021E18110BDC2
:10587000440200200246087800280AD04878000731
:10588000000F082805D0087813681B7818400028F6
:105890000CD06020805CC007C00F002804D148787D
:1058A000C006C00F002801D0002070470020C04370
:1058B000FBE7000010B500F0EDFA0446002C04D020
:1058C0000248816B204601F063F910BD44020020BC
:1058D00070B50446A189E089081A05B205E02021C7
:1058E000204601F0A7F8681E05B2002DF7DC217BE9
:1058F000204600F083F870BD10B500F0CBFA0446E6
:10590000002C02D0204600F00DFC10BD10B504465E
:105910000021C943204600F001F810BDF8B5044647
:105920000D46681C002801D1012000E00020064639
:10593000E089002801D1012D06D0E089A1898842A3
:1059400003D1681C002800D1F8BDE089A1898842F4
:1059500010D1012D0ED1E089401EE081A089401EAA
:10596000A0810021A289206981540121204600F0F4
:1059700045F840E030460AE0E18909182269525CA6
:10598000E1890918491E23695A54411C08B2A289A9
:10599000E189511A8142EFDCA089401EA081002ECE
:1059A00006D1E089401EE0810821204601F042F83E
:1059B0000021A28920698154E08907B206E02069AC
:1059C000C15D204601F036F8781C07B2A089B842C4
:1059D000F5DC2021204601F02DF8A189E089081A84
:1059E000401C07B205E00821204601F023F8781E8C
:1059F00007B2002FF7DC00BFA6E7000070B5054630
:105A00000C4603E004A1284601F0C2F82046611EBE
:105A1000CCB20028F6D170BD0820080010B50446AD
:105A20000021C943204600F0BFFA10BD10B504465E
:105A3000204600F005F80121204601F02DF810BDA8
:105A400070B50446A089002800D170BD0021A2894C
:105A5000206981546020005DC007C00F002824D059
:105A6000204600F001FB204600F088FC0021E18187
:105A7000A181E08E002800D1E7E70EA1204601F0C9
:105A800087F800232046A26D616900F05FFD05469E
:105A9000002D04D02946204600F0FEFC04E0064814
:105AA0008169204601F074F802E02046FFF7C0FE4D
:105AB00000BFCAE70D0A00004402002010B50246EC
:105AC000114600200B78302B07D14B78782B02D071
:105AD0004B78582B01D103200EE00B78302B07D1E7
